:100000002FC03EC03DC03CC03BC03AC039C038C024
:1000100037C036C035C034C033C067C131C030C00E
:100020002FC02EC02DC02CC02BC070C129C028C02D
:1000300027C026C03152504D3A20202020202020B9
:100040002020202020003252504D3A202020202015
:10005000202020202020200003030302280F0C066C
:1000600011241FBECFEFD2E0DEBFCDBF12E0A0E073
:10007000B1E001C01D92AF39B107E1F709D097C3D4
:10008000BFCF681710F4861B0895681B862F08954C
:100090002F923F924F925F926F927F928F929F9298
:1000A000AF92BF92CF92DF92EF92FF920F931F9386
:1000B000DF93CF9300D000D00F92CDB7DEB7109270
:1000C0000F0289ED898389EC8A838AED8B8388EC22
:1000D0008C83F3D002D13D9A549AC1D1579A5F9A3A
:1000E0003C9A449A559A789484E390E066E470E0F0
:1000F000EFD180910F0290E023E830E0829FF00181
:10010000839FF00D929FF00D1124ED5FFE4FE45898
:10011000FF4F84E181938DE280835F9882E080933A
:100120007C008DEE80937A0018BC6624772443010E
:100130002224332421011D8222E020937C00399A5D
:10014000419A579A5F9A20910B0230910C0240E03D
:1001500050E0A9013327222780910D0290910E02D1
:10016000A0E0B0E0280F391F4A1F5B1F60EE75E06A
:100170008DE29BE09DD259016A01611471048104F2
:10018000910481F480910F0293E8899FF00111247A
:10019000ED5FFE4F80E011921192119211928F5FEC
:1001A0008E31C9F721E4A2162CE9B20620E0C2067E
:1001B00020E0D2060CF069C06A147B048C049D0414
:1001C00009F463C08DE45DD1E1E0F0E0EC0FFD1FC8
:1001D0008D81E80FF11D80810AD19D819F5F9D83F4
:1001E000943008F01D82809101018E3118F48F5FE8
:1001F0008093010180910F02482F50E083E890E046
:10020000489FF001499FF00D589FF00D1124ED5FBC
:10021000FE4F20E084819581A681B78181939193DF
:10022000A193B1932F5F2D31A9F783E890E0489F08
:10023000F001499FF00D589FF00D1124ED5FFE4F26
:10024000EC58FF4FA082B182C282D382E457F040C3
:10025000EE24FF24870120E081919191A191B19139
:10026000E80EF91E0A1F1B1F2F5F2E31A9F72091E0
:10027000010130E040E050E0C801B70119D2C901E6
:10028000DA011C012D01350146018091090290918E
:100290000A02019690930A028093090281529E44B9
:1002A00008F44ACF10920A0210920902C201B10169
:1002B00044E427E001E037D13FCF83E284BD91E001
:1002C00095BD89E188BD10926E001092800083E098
:1002D0008093810090936F00089584E080937E0066
:1002E0002198299A459A5C9808951F920F920FB60B
:1002F0000F9211248F93809102018F5F80930201EE
:100300008F910F900FBE0F901F9018951F920F9214
:100310000FB60F9211242F933F934F935F936F93D8
:100320007F938F939F93AF93BF93EF93FF938091AE
:100330007800909179009695879596958795682F86
:1003400080939402809199028617D8F480911002CC
:100350008823B9F481E08093100280918400909109
:10036000850090930E0280930D02109285001092EA
:1003700084008091020180930B0210920C02109273
:10038000020180918F02681730F480911002813051
:1003900011F41092100280919E0273DE8B30B0F047
:1003A00080919E02809391022091940220939E025C
:1003B00030E0280F311D35952795822F2093950227
:1003C0008B5F809399028A5080938F02FF91EF9107
:1003D000BF91AF919F918F917F916F915F914F915D
:1003E0003F912F910F900FBE0F901F9018959AB1CB
:1003F0009F609AB9459A48E853E1FA013197F1F7BD
:100400009BB1907F9BB92BB1982F92959F70922BA7
:100410009BB94598459AFA013197F1F79BB1907FC6
:100420009BB99BB18F70982B9BB94598CA010197D6
:10043000F1F708955C9881E0DADF5C9A0895CF9334
:10044000DF93C8E5D0E0FE018491D1DF2196F0E092
:10045000C036DF07C1F75C9ADF91CF91089584EC35
:1004600099E024EF31E0F9013197F1F70197D9F7DD
:10047000E6DFE0DF80E593EC0197F1F7E0DFDADF1C
:1004800008955C988068B3DF5C9A08950F931F937A
:10049000CF93DF938B01F5DFC0E0D0E0F801EC0FE4
:1004A000FD1FE4918E2FA3DF2196C031D105B1F756
:1004B000DF91CF911F910F9108951F93E2DF10E01C
:1004C00080E295DF1F5F1031D9F71F9108950895DD
:1004D000EF92FF920F931F93CF93DF938C017B01D9
:1004E00080E0CFDFC0E0D0E0F801EC0FFD1FE49129
:1004F0008E2F7DDF2196C031D105B1F780E4C1DFB9
:10050000C0E0D0E0F701EC0FFD1FE4918E2F6FDF0C
:100510002196C031D105B1F7DF91CF911F910F9195
:10052000FF90EF900895AF92BF92CF92DF92EF923B
:10053000FF920F931F93DF93CF93CDB7DEB76097F2
:100540000FB6F894DEBF0FBECDBF6B017C01142F38
:10055000A22EB02E1092000197FF03C08EE4898373
:1005600006C0AE014F5F5F4F2AE030E0DED0812F42
:1005700088DF82E0B81611F08AE001C084E690E0DE
:10058000A0E0B0E0C816D906EA06FB060CF447C0A6
:10059000FE013196DF010D900020E9F71197AE1BA7
:1005A000BF0B8A2D90E08A179B0710F48A2D01C09B
:1005B0008A2F00E0E82EFF24EB18F1086E01089462
:1005C000C11CD11C0AC0EC0DFD1D808110DF809183
:1005D00000018F5F809300010F5FE02FF0E0EE15C8
:1005E000FF058CF38EE203DF809100018F5F809323
:1005F000000110E07E010894E11CF11C0BC0F70122
:10060000E80FF11D8081F3DE809100018F5F809300
:1006100000011F5F812F800F1B1588F334C080E31A
:10062000E6DE809100018F5F809300018EE2DFDEC5
:10063000809100018F5F8093000110E07E0108949B
:10064000E11CF11C16C0F70101900020E9F7319779
:10065000EE19FF09A12FB0E0AE17BF0748F4AE0DA9
:10066000BF1D8C91C4DE809100018F5F80930001DB
:100670001F5F1B1540F307C080E2B9DE80910001C7
:100680008F5F80930001809100018A15A8F3609626
:100690000FB6F894DEBF0FBECDBFCF91DF911F9193
:1006A0000F91FF90EF90DF90CF90BF90AF900895A3
:1006B00097FB092E05260ED057FD04D014D00AD082
:1006C000001C38F450954095309521953F4F4F4F81
:1006D0005F4F0895F6F790958095709561957F4FDF
:1006E0008F4F9F4F0895A1E21A2EAA1BBB1BFD013D
:1006F0000DC0AA1FBB1FEE1FFF1FA217B307E40701
:10070000F50720F0A21BB30BE40BF50B661F771F58
:10071000881F991F1A9469F7609570958095909538
:100720009B01AC01BD01CF010895FA01CF93FF9366
:10073000EF9322303CF125322CF5C22FE894CA30D9
:1007400049F497FB3EF490958095709561957F4FA5
:100750008F4F9F4F2C2F332744275527FF93EF931D
:10076000C2DFEF91FF91605D6A330CF0695D6193C8
:10077000B901CA01605070408040904059F716F4AA
:10078000CDE2C19310828F919F91CF9100C0DC0187
:10079000FC01672F71917723E1F7329704C07C91B8
:1007A0006D9370836291AE17BF07C8F30895F894F4
:0207B000FFCF79
:00000001FF
