:100000002FC03EC03DC03CC03BC03AC039C038C024
:1000100037C036C035C034C033C043C131C030C032
:100020002FC02EC02DC02CC02BC04CC129C028C051
:1000300027C026C03152504D3A20202020202020B9
:100040002020202020003252504D3A202020202015
:10005000202020202020200003030302280F0C066C
:1000600011241FBECFEFD2E0DEBFCDBF11E0A0E074
:10007000B1E001C01D92A839B107E1F709D073C3FF
:10008000BFCF681710F4861B0895681B862F08954C
:100090002F923F924F925F926F927F928F929F9298
:1000A000AF92BF92CF92DF92EF92FF920F931F9386
:1000B000DF93CF9300D000D00F92CDB7DEB789ED9C
:1000C000898389EC8A838AED8B8388EC8C83D1D0F9
:1000D000E0D03D9A549A9FD1579A5F9A3C9A449A9D
:1000E000559A789484E390E066E470E0CDD184E1A1
:1000F000809381018DE280938C015F9882E08093F0
:100100007C008DEE80937A0018BC6624772443012E
:100110002224332421011D821999A1C022E02093B9
:100120007C00399A419A579A5F9A209190013091B8
:10013000910140E050E0A9013327222780919201EC
:1001400090919301A0E0B0E0280F391F4A1F5B1F78
:1001500060EE75E08DE29BE087D259016A0161147F
:1001600071048104910451F4E3E0F1E011921192E1
:100170001192119281E0EB37F807C1F721E4A21642
:100180002CE9B20620E0C20620E0D2060CF04FC0F7
:100190006A147B048C049D0409F449C08DE44DD19C
:1001A000E1E0F0E0EC0FFD1F8D81E80FF11D808193
:1001B000FAD02D812F5F2D83243008F01D8280918D
:1001C00001018E3118F48F5F80930101E3E0F1E0CB
:1001D00084819581A681B78181939193A193B193F5
:1001E00081E0E737F807A1F7A082B182C282D3820B
:1001F000E3E0F1E0EE24FF24870181919191A19148
:10020000B191E80EF91E0A1F1B1F21E0EB37F20720
:10021000A1F72091010130E040E050E0C801B701B2
:1002200023D2C901DA011C012D013501460180915B
:100230008E0190918F01019690938F0180938E0192
:1002400081529E4408F468CF10928F0110928E0163
:10025000C201B10144E427E001E041D15DCF109239
:100260008F0110928E015F98419866247724430194
:1002700053CF83E284BD91E095BD89E188BD1092A2
:100280006E001092800083E08093810090936F0055
:10029000089584E080937E002198299A459A5C987D
:1002A00008951F920F920FB60F9211248F93809191
:1002B00083018F5F809383018F910F900FBE0F900A
:1002C0001F9018951F920F920FB60F9211242F9323
:1002D0003F934F935F936F937F938F939F93AF93CE
:1002E000BF93EF93FF93809178009091790096955A
:1002F000879596958795682F8093870180918C01CB
:100300008617D8F4809102018823B9F481E08093A4
:1003100002018091840090918500909393018093D5
:100320009201109285001092840080918301809345
:1003300090011092910110928301809181016817C0
:1003400030F480910201813011F410920201809109
:10035000970197DE8B30B0F08091970180938401F4
:10036000209187012093970130E0280F311D3595AA
:100370002795822F209388018B5F80938C018A5070
:1003800080938101FF91EF91BF91AF919F918F91E8
:100390007F916F915F914F913F912F910F900FBE81
:1003A0000F901F9018959AB19F609AB9459A48E8A6
:1003B00053E1FA013197F1F79BB1907F9BB92BB1D3
:1003C000982F92959F70922B9BB94598459AFA0168
:1003D0003197F1F79BB1907F9BB99BB18F70982BB0
:1003E0009BB94598CA010197F1F708955C9881E09F
:1003F000DADF5C9A0895CF93DF93C8E5D0E0FE0181
:100400008491D1DF2196F0E0C036DF07C1F75C9A16
:10041000DF91CF91089584EC99E024EF31E0F90168
:100420003197F1F70197D9F7E6DFE0DF80E593EC4C
:100430000197F1F7E0DFDADF08955C988068B3DFB9
:100440005C9A08950F931F93CF93DF938B01F5DF91
:10045000C0E0D0E0F801EC0FFD1FE4918E2FA3DF88
:100460002196C031D105B1F7DF91CF911F910F9146
:1004700008951F93E2DF10E080E295DF1F5F1031E7
:10048000D9F71F9108950895EF92FF920F931F934C
:10049000CF93DF938C017B0180E0CFDFC0E0D0E021
:1004A000F801EC0FFD1FE4918E2F7DDF2196C03106
:1004B000D105B1F780E4C1DFC0E0D0E0F701EC0F77
:1004C000FD1FE4918E2F6FDF2196C031D105B1F76A
:1004D000DF91CF911F910F91FF90EF900895AF9210
:1004E000BF92CF92DF92EF92FF920F931F93DF9311
:1004F000CF93CDB7DEB760970FB6F894DEBF0FBECF
:10050000CDBF6B017C01142FA22EB02E10920001E2
:1005100097FF03C08EE4898306C0AE014F5F5F4F33
:100520002AE030E0DED0812F88DF82E0B81611F0BB
:100530008AE001C084E690E0A0E0B0E0C816D906E9
:10054000EA06FB060CF447C0FE013196DF010D9070
:100550000020E9F71197AE1BBF0B8A2D90E08A1798
:100560009B0710F48A2D01C08A2F00E0E82EFF249B
:10057000EB18F1086E010894C11CD11C0AC0EC0DE7
:10058000FD1D808110DF809100018F5F809300014D
:100590000F5FE02FF0E0EE15FF058CF38EE203DF36
:1005A000809100018F5F8093000110E07E0108942C
:1005B000E11CF11C0BC0F701E80FF11D8081F3DE97
:1005C000809100018F5F809300011F5F812F800F5A
:1005D0001B1588F334C080E3E6DE809100018F5F55
:1005E000809300018EE2DFDE809100018F5F8093B7
:1005F000000110E07E010894E11CF11C16C0F70117
:1006000001900020E9F73197EE19FF09A12FB0E022
:10061000AE17BF0748F4AE0DBF1D8C91C4DE8091AC
:1006200000018F5F809300011F5F1B1540F307C01F
:1006300080E2B9DE809100018F5F8093000180919C
:1006400000018A15A8F360960FB6F894DEBF0FBEBE
:10065000CDBFCF91DF911F910F91FF90EF90DF9071
:10066000CF90BF90AF90089597FB092E05260ED02E
:1006700057FD04D014D00AD0001C38F45095409592
:10068000309521953F4F4F4F5F4F0895F6F7909566
:100690008095709561957F4F8F4F9F4F0895A1E290
:1006A0001A2EAA1BBB1BFD010DC0AA1FBB1FEE1FEC
:1006B000FF1FA217B307E407F50720F0A21BB30B37
:1006C000E40BF50B661F771F881F991F1A9469F7B3
:1006D00060957095809590959B01AC01BD01CF010F
:1006E0000895FA01CF93FF93EF9322303CF1253226
:1006F0002CF5C22FE894CA3049F497FB3EF490954C
:100700008095709561957F4F8F4F9F4F2C2F33278A
:1007100044275527FF93EF93C2DFEF91FF91605D70
:100720006A330CF0695D6193B901CA016050704091
:100730008040904059F716F4CDE2C19310828F911A
:100740009F91CF9100C0DC01FC01672F719177234D
:10075000E1F7329704C07C916D9370836291AE177C
:0A076000BF07C8F30895F894FFCF17
:00000001FF
