:100000002FC03EC03DC03CC03BC03AC039C038C024
:1000100037C036C035C034C033C0AFC131C030C0C6
:100020002FC02EC02DC02CC02BC0B8C129C028C0E5
:1000300027C026C03152504D3A20202020202020B9
:100040002020202020003252504D3A202020202015
:10005000202020202020200003030302280F0C066C
:1000600011241FBECFEFD2E0DEBFCDBF11E0A0E074
:10007000B1E001C01D92A538B107E1F72DD082C4CF
:10008000BFCF681710F4861B0895681B862F08954C
:1000900080918401813061F4109284018FE0DCD280
:1000A00081E390D28FE4D8D28FE58CD282E00CC06D
:1000B00081E0809384018FE0CFD28FE583D28FE4FB
:1000C000CBD282E37FD283E080937C0081E0809377
:1000D0000A0110927F010895AF92BF92CF92DF92F2
:1000E000EF92FF920F931F93DF93CF9300D000D036
:1000F000CDB7DEB71092840189ED898389EC8A83BC
:100100008AED8B8388EC8C8320D12FD13D9A549A31
:1001100091D2579A5F9A3C9A449A559A789484E37C
:1001200090E066E470E0BFD2EBE3F1E020E030E085
:1001300064E19DE24AE350E0F0971082118212825E
:100140001382F09661839283249FD001259FB00D86
:10015000349FB00D1124A15FBE4F80E01D921D920F
:100160001D921D928F5F8A30C9F71082108611860A
:100170002F5F3F4FFA9622303105F1F65F9888DF06
:100180008DEE80937A00399A419A579A5F9A18BCFB
:100190007AE3C72ED12CEE24E3945E010894A11CCF
:1001A000B11C8091800190918101A0E0B0E0DC0160
:1001B00099278827209182013091830140E050E007
:1001C000820F931FA41FB51F855B944CA440B040C1
:1001D00024F18091840190E08C9D90018D9D300DE3
:1001E0009C9D300D1124D901A55FBE4FD0968C91F6
:1001F000D097E82FF0E03196EE0FFF1FEE0FFF1FB4
:10020000E20FF31FE55FFE4F10821182128213820C
:100210008F5FD0968C93E0927F0180917F0188233D
:1002200009F46FC08091840190E08C9DF0018D9D58
:10023000F00D9C9DF00D1124E55FFE4F84819581AA
:10024000A681B78180839183A283B38321E030E0CC
:10025000F09084018F2D90E0AC014C9DC0014D9D2C
:10026000900D5C9D900D11248C01055F1E4F2F5F3A
:100270003F4FF901EE0FFF1FEE0FFF1FE80FF91FB1
:10028000E55FFE4F4081518162817381F801808179
:100290009181A281B381480F591F6A1F7B1F408340
:1002A0005183628373832A30310591F6CB01BA0101
:1002B0002AE030E040E050E0E6D2F80120833183CC
:1002C00042835383FF2021F0F1E0FF16C9F40CC0F4
:1002D00060910B0170910C0180910D0190910E01C4
:1002E00045E027E001E00AD26091450170914601A6
:1002F000809147019091480145E427E001E0FED15B
:10030000C7DE9091430180914401981759F0909372
:1003100044018EE0A1D180914301F501E80FF11D68
:10032000808150D190917D0180917E01981709F4D0
:1003300038CF90937E018EE48FD180914301F501F7
:10034000E80FF11D80813ED12CCF83E284BD91E086
:1003500095BD89E188BD10926E001092800083E007
:100360008093810090936F0008958CE080937E00CD
:100370002198299A459A5C9808951F920F920FB67A
:100380000F9211248F93809109018F5F809309014F
:100390008F910F900FBE0F901F9018951F920F9284
:1003A0000FB60F921124AF92BF92CF92DF92EF92CD
:1003B000FF920F931F932F933F934F935F936F93EE
:1003C0007F938F939F93AF93BF93CF93DF93EF93DD
:1003D000FF9380918401C82EDD2420917800309114
:1003E000790036952795369527958AE390E0C89E43
:1003F0005001C99EB00CD89EB00C1124E501C55F18
:10040000DE4F2BAB8AA9821708F083C08CA9882302
:1004100009F07FC081E08CAB609184007091850011
:100420007093830160938201109285001092840082
:1004300080910901282F30E03093810120938001C1
:100440001092090180910A01882319F010920A0183
:100450004FC080917F01882309F04AC0C901A0E004
:10046000B0E0AC0133272227CB01A0E0B0E0280F99
:10047000391F4A1F5B1F20930101309302014093F3
:10048000030150930401211531054105510569F11E
:1004900060EE75E08DE29BE0F6D179018A01E09291
:1004A0000501F0920601009307011093080188EC02
:1004B000E8168FEAF80680E0080780E01807ACF439
:1004C00088A9E82FF0E03196EE0FFF1FEE0FFF1F17
:1004D000EA0DFB1DE55FFE4FE082F182028313838C
:1004E0008F5F88AB8A3008F018AA81E080937F0183
:1004F0008AE390E0C89EF001C99EF00DD89EF00DF1
:100500001124E55FFE4F80AD8F5F80AF843008F02F
:1005100010AE8AE390E0C89EF001C99EF00DD89E0F
:10052000F00D1124E55FFE4F93A981A9981720F4DF
:1005300084A9813009F414AACAE3D0E0CC9EF0016A
:10054000CD9EF00DDC9EF00D1124E55FFE4F85A9D8
:1005500063A997DD8B30D8F08091840190E08C9F67
:10056000F0018D9FF00D9C9FF00D1124E55FFE4F73
:1005700025A926AB83A985AB90E0820F911D9595A7
:100580008795282F87AB2B5F22AB2A5021ABFF9199
:10059000EF91DF91CF91BF91AF919F918F917F911B
:1005A0006F915F914F913F912F911F910F91FF900C
:1005B000EF90DF90CF90BF90AF900F900FBE0F9055
:1005C0001F9018959AB19F609AB9459A48E853E1EF
:1005D000FA013197F1F79BB1907F9BB92BB1982F1E
:1005E00092959F70922B9BB94598459AFA01319745
:1005F000F1F79BB1907F9BB99BB18F70982B9BB902
:100600004598CA010197F1F708955C9881E0DADF17
:100610005C9A0895CF93DF93C8E5D0E0FE01849102
:10062000D1DF2196F0E0C036DF07C1F75C9ADF9199
:10063000CF91089584EC99E024EF31E0F9013197EE
:10064000F1F70197D9F7E6DFE0DF80E593EC01975A
:10065000F1F7E0DFDADF08955C988068B3DF5C9A39
:1006600008950F931F93CF93DF938B01F5DFC0E0C5
:10067000D0E0F801EC0FFD1FE4918E2FA3DF21964F
:10068000C031D105B1F7DF91CF911F910F9108953E
:100690001F93E2DF10E080E295DF1F5F1031D9F792
:1006A0001F9108950895EF92FF920F931F93CF9398
:1006B000DF938C017B0180E0CFDFC0E0D0E0F80168
:1006C000EC0FFD1FE4918E2F7DDF2196C031D10507
:1006D000B1F780E4C1DFC0E0D0E0F701EC0FFD1F0F
:1006E000E4918E2F6FDF2196C031D105B1F7DF91F4
:1006F000CF911F910F91FF90EF900895AF92BF920D
:10070000CF92DF92EF92FF920F931F93DF93CF93DD
:10071000CDB7DEB760970FB6F894DEBF0FBECDBF82
:100720006B017C01142FA22EB02E1092000197FFB6
:1007300003C08EE4898306C0AE014F5F5F4F2AE09D
:1007400030E0DED0812F88DF82E0B81611F08AE039
:1007500001C084E690E0A0E0B0E0C816D906EA0641
:10076000FB060CF447C0FE013196DF010D9000201E
:10077000E9F71197AE1BBF0B8A2D90E08A179B07F4
:1007800010F48A2D01C08A2F00E0E82EFF24EB1818
:10079000F1086E010894C11CD11C0AC0EC0DFD1DAE
:1007A000808110DF809100018F5F809300010F5FD7
:1007B000E02FF0E0EE15FF058CF38EE203DF809171
:1007C00000018F5F8093000110E07E010894E11C1E
:1007D000F11C0BC0F701E80FF11D8081F3DE809161
:1007E00000018F5F809300011F5F812F800F1B1519
:1007F00088F334C080E3E6DE809100018F5F809350
:1008000000018EE2DFDE809100018F5F80930001A6
:1008100010E07E010894E11CF11C16C0F701019064
:100820000020E9F73197EE19FF09A12FB0E0AE17CC
:10083000BF0748F4AE0DBF1D8C91C4DE809100014E
:100840008F5F809300011F5F1B1540F307C080E29C
:10085000B9DE809100018F5F8093000180910001DB
:100860008A15A8F360960FB6F894DEBF0FBECDBF11
:10087000CF91DF911F910F91FF90EF90DF90CF907C
:10088000BF90AF90089597FB092E05260ED057FD17
:1008900004D014D00AD0001C38F4509540953095FF
:1008A00021953F4F4F4F5F4F0895F6F790958095F4
:1008B000709561957F4F8F4F9F4F0895A1E21A2E3B
:1008C000AA1BBB1BFD010DC0AA1FBB1FEE1FFF1FF4
:1008D000A217B307E407F50720F0A21BB30BE40B44
:1008E000F50B661F771F881F991F1A9469F760958B
:1008F0007095809590959B01AC01BD01CF01089545
:10090000FA01CF93FF93EF9322303CF125322CF57F
:10091000C22FE894CA3049F497FB3EF49095809535
:10092000709561957F4F8F4F9F4F2C2F3327442712
:100930005527FF93EF93C2DFEF91FF91605D6A331C
:100940000CF0695D6193B901CA016050704080404C
:10095000904059F716F4CDE2C19310828F919F9188
:10096000CF9100C0DC01FC01672F71917723E1F783
:10097000329704C07C916D9370836291AE17BF076C
:08098000C8F30895F894FFCFBD
:00000001FF
