:100000002FC03EC03DC03CC03BC03AC039C038C024
:1000100037C036C035C034C033C0B2C131C030C0C3
:100020002FC02EC02DC02CC02BC0BBC129C028C0E2
:1000300027C026C03152504D3A20202020202020B9
:100040002020202020003252504D3A202020202015
:10005000202020202020200003030302280F0C066C
:1000600011241FBECFEFD2E0DEBFCDBF11E0A0E074
:10007000B1E001C01D92AD35B107E1F72DD085C4C7
:10008000BFCF681710F4861B0895681B862F08954C
:1000900080915C01813061F410925C018FE0DFD2CD
:1000A00081E393D28FE4DBD28FE58FD282E00CC064
:1000B00081E080935C018FE0D2D28FE586D28FE41D
:1000C000CED282E382D283E080937C0081E0809371
:1000D0000A01109257010895AF92BF92CF92DF921A
:1000E000EF92FF920F931F93DF93CF9300D000D036
:1000F000CDB7DEB710925C0189ED898389EC8A83E4
:100100008AED8B8388EC8C8323D132D13D9A549A2B
:1001100094D2579A5F9A3C9A449A559A789484E379
:1001200090E066E470E0C2D2EBE0F1E0DF015D96C2
:1001300094E18DE210821182128213829C93868F49
:1001400014821582168217821086118612861386F3
:100150001486158616861786108A118A128A138AC3
:10016000148A158A168A178A148E17961C92179766
:1001700018961C921897B696969621E0E735F207E6
:10018000C9F65F988DEE80937A003B9A439A579A0E
:100190005F9A18BC7DDF76E2C72ED12CEE24E39463
:1001A0005E010894A11CB11C8091580190915901E5
:1001B000A0E0B0E0DC019927882720915A01309116
:1001C0005B0140E050E0820F931FA41FB51F855BC9
:1001D000944CA440B04024F180915C0190E08C9D4F
:1001E00090018D9D300D9C9D300D1124D901A55F8E
:1001F000BE4F5C968C915C97E82FF0E03196EE0F45
:10020000FF1FEE0FFF1FE20FF31FE55FFE4F10828F
:100210001182128213828F5F5C968C93E092570159
:1002200080915701882309F46FC080915C0190E0B0
:100230008C9DF0018D9DF00D9C9DF00D1124E55FCE
:10024000FE4F84819581A681B78180839183A283AB
:10025000B38321E030E0F0905C018F2D90E0FC0151
:10026000EC9DC001ED9D900DFC9D900D11248C0125
:10027000055F1E4F2F5F3F4FF901EE0FFF1FEE0F7F
:10028000FF1FE80FF91FE55FFE4F4081518162813A
:100290007381F80180819181A281B381480F591F38
:1002A0006A1F7B1F4083518362837383253031052E
:1002B00091F6CB01BA0125E030E040E050E0E6D213
:1002C000F8012083318342835383FF2021F0F1E042
:1002D000FF16C9F40CC060910B0170910C01809164
:1002E0000D0190910E0145E027E001E00AD26091F6
:1002F000310170913201809133019091340145E4D4
:1003000027E001E0FED1C4DE90912F018091300101
:10031000981759F0909330018EE0A1D180912F0170
:10032000F501E80FF11D808150D190915501809128
:100330005601981709F438CF909356018EE48FD167
:1003400080912F01F501E80FF11D80813ED12CCF66
:1003500083E284BD91E095BD89E188BD10926E0075
:100360001092800083E08093810090936F00089545
:100370008CE080937E002198299A459A5C98089594
:100380001F920F920FB60F9211248F938091090143
:100390008F5F809309018F910F900FBE0F901F9078
:1003A00018951F920F920FB60F921124AF92BF9221
:1003B000CF92DF92EF92FF920F931F932F933F9371
:1003C0004F935F936F937F938F939F93AF93BF935D
:1003D000CF93DF93EF93FF9380915C01C82EDD24D0
:1003E000209178003091790036952795369527959C
:1003F00086E290E0C89E5001C99EB00CD89EB00C19
:100400001124E501C55FDE4F2F8F8E8D821708F016
:1004100083C088A1882309F07FC081E088A3609110
:1004200084007091850070935B0160935A01109273
:1004300085001092840080910901282F30E03093CC
:100440005901209358011092090180910A018823D3
:1004500019F010920A014FC080915701882309F0CA
:100460004AC0C901A0E0B0E0AC0133272227CB018C
:10047000A0E0B0E0280F391F4A1F5B1F2093010145
:10048000309302014093030150930401211531057B
:100490004105510569F160EE75E08DE29BE0F6D112
:1004A00079018A01E0920501F092060100930701AB
:1004B0001093080188ECE8168FEAF80680E0080738
:1004C00080E01807ACF48C8DE82FF0E03196EE0F49
:1004D000FF1FEE0FFF1FEA0DFB1DE55FFE4FE082E1
:1004E000F182028313838F5F8C8F853008F01C8E1E
:1004F00081E08093570186E290E0C89EF001C99E9A
:10050000F00DD89EF00D1124E55FFE4F84A18F5FA2
:1005100084A3843008F014A286E290E0C89EF00123
:10052000C99EF00DD89EF00D1124E55FFE4F978D0A
:10053000858D981720F480A1813009F410A2C6E2BD
:10054000D0E0CC9EF001CD9EF00DDC9EF00D11248C
:10055000E55FFE4F81A1678D94DD8B30D8F08091EF
:100560005C0190E08C9FF0018D9FF00D9C9FF00D41
:100570001124E55FFE4F21A122A3878D81A390E086
:10058000820F911D95958795282F83A32B5F268F2A
:100590002A50258FFF91EF91DF91CF91BF91AF91BD
:1005A0009F918F917F916F915F914F913F912F918B
:1005B0001F910F91FF90EF90DF90CF90BF90AF9081
:1005C0000F900FBE0F901F9018959AB19F609AB927
:1005D000459A48E853E1FA013197F1F79BB1907FD2
:1005E0009BB92BB1982F92959F70922B9BB94598F0
:1005F000459AFA013197F1F79BB1907F9BB99BB176
:100600008F70982B9BB94598CA010197F1F708950F
:100610005C9881E0DADF5C9A0895CF93DF93C8E5B8
:10062000D0E0FE018491D1DF2196F0E0C036DF07F3
:10063000C1F75C9ADF91CF91089584EC99E024EFA3
:1006400031E0F9013197F1F70197D9F7E6DFE0DF03
:1006500080E593EC0197F1F7E0DFDADF08955C982D
:100660008068B3DF5C9A08950F931F93CF93DF9355
:100670008B01F5DFC0E0D0E0F801EC0FFD1FE49145
:100680008E2FA3DF2196C031D105B1F7DF91CF9135
:100690001F910F9108951F93E2DF10E080E295DF34
:1006A0001F5F1031D9F71F9108950895EF92FF92BF
:1006B0000F931F93CF93DF938C017B0180E0CFDFFB
:1006C000C0E0D0E0F801EC0FFD1FE4918E2F7DDF3C
:1006D0002196C031D105B1F780E4C1DFC0E0D0E0A0
:1006E000F701EC0FFD1FE4918E2F6FDF2196C031D3
:1006F000D105B1F7DF91CF911F910F91FF90EF904E
:100700000895AF92BF92CF92DF92EF92FF920F9334
:100710001F93DF93CF93CDB7DEB760970FB6F894F2
:10072000DEBF0FBECDBF6B017C01142FA22EB02EF9
:100730001092000197FF03C08EE4898306C0AE01CA
:100740004F5F5F4F2AE030E0DED0812F88DF82E00C
:10075000B81611F08AE001C084E690E0A0E0B0E0B5
:10076000C816D906EA06FB060CF447C0FE0131960E
:10077000DF010D900020E9F71197AE1BBF0B8A2D0A
:1007800090E08A179B0710F48A2D01C08A2F00E0A1
:10079000E82EFF24EB18F1086E010894C11CD11C4F
:1007A0000AC0EC0DFD1D808110DF809100018F5F7C
:1007B000809300010F5FE02FF0E0EE15FF058CF352
:1007C0008EE203DF809100018F5F8093000110E0D3
:1007D0007E010894E11CF11C0BC0F701E80FF11D2C
:1007E0008081F3DE809100018F5F809300011F5FA5
:1007F000812F800F1B1588F334C080E3E6DE8091E3
:1008000000018F5F809300018EE2DFDE80910001A6
:100810008F5F8093000110E07E010894E11CF11CC1
:1008200016C0F70101900020E9F73197EE19FF0992
:10083000A12FB0E0AE17BF0748F4AE0DBF1D8C91DD
:10084000C4DE809100018F5F809300011F5F1B1544
:1008500040F307C080E2B9DE809100018F5F809392
:100860000001809100018A15A8F360960FB6F894F4
:10087000DEBF0FBECDBFCF91DF911F910F91FF90D3
:10088000EF90DF90CF90BF90AF90089597FB092E27
:1008900005260ED057FD04D014D00AD0001C38F421
:1008A00050954095309521953F4F4F4F5F4F08959C
:1008B000F6F790958095709561957F4F8F4F9F4F7C
:1008C0000895A1E21A2EAA1BBB1BFD010DC0AA1F91
:1008D000BB1FEE1FFF1FA217B307E407F50720F0A9
:1008E000A21BB30BE40BF50B661F771F881F991F24
:1008F0001A9469F760957095809590959B01AC016D
:10090000BD01CF010895FA01CF93FF93EF932230F9
:100910003CF125322CF5C22FE894CA3049F497FBFC
:100920003EF490958095709561957F4F8F4F9F4FC6
:100930002C2F332744275527FF93EF93C2DFEF91E6
:10094000FF91605D6A330CF0695D6193B901CA0182
:10095000605070408040904059F716F4CDE2C1934A
:1009600010828F919F91CF9100C0DC01FC01672F15
:1009700071917723E1F7329704C07C916D93708376
:0E0980006291AE17BF07C8F30895F894FFCF39
:00000001FF
