:100000002FC03EC03DC03CC03BC03AC039C038C024
:1000100037C036C035C034C033C026C231C030C04E
:100020002FC02EC02DC02CC02BC02FC229C028C06D
:1000300027C026C03152504D3A20202020202020B9
:100040002020202020003252504D3A202020202015
:10005000202020202020200003030302280F0C066C
:1000600011241FBECFEFD2E0DEBFCDBF11E0A0E074
:10007000B1E001C01D92A837B107E1F709D07DC4F6
:10008000BFCF681710F4861B0895681B862F08954C
:100090002F923F924F925F926F927F928F929F9298
:1000A000AF92BF92CF92DF92EF92FF920F931F9386
:1000B000DF93CF93CDB7DEB760970FB6F894DEBF6E
:1000C0000FBECDBF1092770189ED898389EC8A83B9
:1000D0008AED8B8388EC8C83AFD1BED13D9A549A44
:1000E000A4D2579A5F9A3C9A449A559A789484E39A
:1000F00090E066E470E0D2D2109203011092040105
:10010000109205011092060194E1909333018DE263
:100110008093340110923A0110923B0110923C01FD
:1001200010923D0190936A0180936B015F988091DA
:1001300077018E5F80937C008DEE80937A00399AF0
:10014000419A579A5F9A18BC1D861E861F86188A88
:10015000332419861A861B861C861D821E821F82E6
:100160001886222423948091730190917401A0E059
:10017000B0E03C01552444248091750190917601B2
:10018000A0E0B0E0480E591E6A1E7B1E60EE75E0CE
:100190008DE29BE0A301920171D359016A01ED84C4
:1001A000FE840F851889E114F1040105110509F594
:1001B00020E030E02F5F3F4F8091770190E0F90120
:1001C000EE0FFF1FEE0FFF1F8C0147E350E0049F6F
:1001D000C001059F900D149F900D1124E80FF91F89
:1001E000ED5FFE4F10821182128213822A30310598
:1001F00009F751E4A5165CE9B50650E0C50650E0E4
:10020000D5060CF0A7C06D857E858F8598896A1507
:100210007B058C059D0509F49DC08091770188239D
:1002200011F48EE001C08EE412D2E1E0F0E0EC0FB8
:10023000FD1FE30DF11D8081C0D1339473E0731570
:1002400008F43324809101018A3018F48F5F809381
:10025000010140E050E08091770190E04F5F5F4FF7
:100260009A01220F331F220F331FA7E3B0E08A9FAA
:10027000B0018B9F700D9A9F700D1124260F371FB0
:100280002D5F3E4FFA013196EE0FFF1FEE0FFF1F5D
:10029000E60FF71FED5FFE4F80819181A281B38150
:1002A000F90180839183A283B3834930510599F684
:1002B000FB01ED5FFE4FA0A6B1A6C2A6D3A6108299
:1002C00011821282138220E030E08091770190E069
:1002D0007C0107E310E0E09EC001E19E900DF09EDE
:1002E000900D112453E0852E51E0952E880E991E15
:1002F0002F5F3F4FF901EE0FFF1FEE0FFF1FE80FBB
:10030000F91FED5FFE4FE080F18002811381F4015F
:1003100080819181A281B381E80EF91E0A1F1B1F03
:10032000D401ED92FD920D931C9313972A30310561
:1003300061F62091010130E040E050E0C801B701D2
:100340009DD2F4012083318342835383AD86BE86E0
:10035000CF86D88A89859A85AB85BC85840D951D05
:10036000A61DB71DED80FE800F8118854E145F0419
:10037000600671067CF09C01AD012E193F09400B0F
:10038000510B29873A874B875C874D825E826F824B
:10039000788604C089879A87AB87BC8749855A8548
:1003A0006B857C8541505D4261437140E4F08091F2
:1003B0007701813051F4109277018FE048D181E3C9
:1003C000FCD08FE444D18FE509C0209277018FE003
:1003D0003ED18FE5F2D08FE43AD182E3EED0198698
:1003E0001A861B861C86809171019091720101967C
:1003F000909372018093710181529E4408F4B3CEB0
:1004000010927201109271016091030170910401C8
:10041000809105019091060145E027E001E069D156
:1004200060913A0170913B0180913C0190913D01B6
:1004300045E427E05ED197CE83E284BD91E095BD8F
:1004400089E188BD10926E001092800083E0809355
:10045000810090936F0008958CE080937E00219836
:10046000299A459A5C9808951F920F920FB60F92A1
:1004700011248F93809102018F5F809302018F91ED
:100480000F900FBE0F901F9018951F920F920FB6EE
:100490000F9211242F933F934F935F936F937F930A
:1004A0008F939F93AF93BF93CF93DF93EF93FF937C
:1004B00080917701482F50E02091780030917900A9
:1004C000369527953695279587E390E0489FF0016C
:1004D000499FF00D589FF00D1124ED5FFE4F22ABA8
:1004E00081A98217C8F483A98823B1F481E083AB82
:1004F000809184009091850090937601809375019E
:100500001092850010928400809102018093730103
:10051000109274011092020187E390E0489FF0016D
:10052000499FF00D589FF00D1124ED5FFE4F92A9E9
:1005300080A9981720F483A9813009F413AAC7E38E
:10054000D0E04C9FF0014D9FF00D5C9FF00D112409
:10055000ED5FFE4F84A962A994DD8B30D8F08091C5
:10056000770190E08C9FF0018D9FF00D9C9FF00D26
:100570001124ED5FFE4F24A925AB82A984AB90E046
:10058000820F911D95958795282F86AB2B5F21AB08
:100590002A5020ABFF91EF91DF91CF91BF91AF91A6
:1005A0009F918F917F916F915F914F913F912F918B
:1005B0000F900FBE0F901F9018959AB19F609AB937
:1005C000459A48E853E1FA013197F1F79BB1907FE2
:1005D0009BB92BB1982F92959F70922B9BB9459800
:1005E000459AFA013197F1F79BB1907F9BB99BB186
:1005F0008F70982B9BB94598CA010197F1F7089520
:100600005C9881E0DADF5C9A0895CF93DF93C8E5C8
:10061000D0E0FE018491D1DF2196F0E0C036DF0703
:10062000C1F75C9ADF91CF91089584EC99E024EFB3
:1006300031E0F9013197F1F70197D9F7E6DFE0DF13
:1006400080E593EC0197F1F7E0DFDADF08955C983D
:100650008068B3DF5C9A08950F931F93CF93DF9365
:100660008B01F5DFC0E0D0E0F801EC0FFD1FE49155
:100670008E2FA3DF2196C031D105B1F7DF91CF9145
:100680001F910F9108951F93E2DF10E080E295DF44
:100690001F5F1031D9F71F9108950895EF92FF92CF
:1006A0000F931F93CF93DF938C017B0180E0CFDF0B
:1006B000C0E0D0E0F801EC0FFD1FE4918E2F7DDF4C
:1006C0002196C031D105B1F780E4C1DFC0E0D0E0B0
:1006D000F701EC0FFD1FE4918E2F6FDF2196C031E3
:1006E000D105B1F7DF91CF911F910F91FF90EF905E
:1006F0000895AF92BF92CF92DF92EF92FF920F9345
:100700001F93DF93CF93CDB7DEB760970FB6F89402
:10071000DEBF0FBECDBF6B017C01142FA22EB02E09
:100720001092000197FF03C08EE4898306C0AE01DA
:100730004F5F5F4F2AE030E0DED0812F88DF82E01C
:10074000B81611F08AE001C084E690E0A0E0B0E0C5
:10075000C816D906EA06FB060CF447C0FE0131961E
:10076000DF010D900020E9F71197AE1BBF0B8A2D1A
:1007700090E08A179B0710F48A2D01C08A2F00E0B1
:10078000E82EFF24EB18F1086E010894C11CD11C5F
:100790000AC0EC0DFD1D808110DF809100018F5F8C
:1007A000809300010F5FE02FF0E0EE15FF058CF362
:1007B0008EE203DF809100018F5F8093000110E0E3
:1007C0007E010894E11CF11C0BC0F701E80FF11D3C
:1007D0008081F3DE809100018F5F809300011F5FB5
:1007E000812F800F1B1588F334C080E3E6DE8091F3
:1007F00000018F5F809300018EE2DFDE80910001B7
:100800008F5F8093000110E07E010894E11CF11CD1
:1008100016C0F70101900020E9F73197EE19FF09A2
:10082000A12FB0E0AE17BF0748F4AE0DBF1D8C91ED
:10083000C4DE809100018F5F809300011F5F1B1554
:1008400040F307C080E2B9DE809100018F5F8093A2
:100850000001809100018A15A8F360960FB6F89404
:10086000DEBF0FBECDBFCF91DF911F910F91FF90E3
:10087000EF90DF90CF90BF90AF90089597FB092E37
:1008800005260ED057FD04D014D00AD0001C38F431
:1008900050954095309521953F4F4F4F5F4F0895AC
:1008A000F6F790958095709561957F4F8F4F9F4F8C
:1008B0000895A1E21A2EAA1BBB1BFD010DC0AA1FA1
:1008C000BB1FEE1FFF1FA217B307E407F50720F0B9
:1008D000A21BB30BE40BF50B661F771F881F991F34
:1008E0001A9469F760957095809590959B01AC017D
:1008F000BD01CF010895FA01CF93FF93EF9322300A
:100900003CF125322CF5C22FE894CA3049F497FB0C
:100910003EF490958095709561957F4F8F4F9F4FD6
:100920002C2F332744275527FF93EF93C2DFEF91F6
:10093000FF91605D6A330CF0695D6193B901CA0192
:10094000605070408040904059F716F4CDE2C1935A
:1009500010828F919F91CF9100C0DC01FC01672F25
:1009600071917723E1F7329704C07C916D93708386
:0E0970006291AE17BF07C8F30895F894FFCF49
:00000001FF
