:100000002FC049C048C047C046C045C044C043C0D7
:1000100042C041C040C03FC03EC09FC23CC03BC088
:100020003AC039C038C037C036C0A8C234C033C0A7
:1000300032C031C03152504D3A20202020202020A3
:100040002020202020003252504D3A202020202015
:10005000202020202020200003030302280F0C066C
:1000600011241FBECFEFD2E0DEBFCDBF11E0A0E074
:10007000B1E0E0E7FAE002C005900D92A830B107C8
:10008000D9F711E0A8E0B1E001C01D92A138B10795
:10009000E1F709D0EBC4B4CF681710F4861B0895BC
:1000A000681B862F08952F923F924F925F926F9216
:1000B0007F928F929F92AF92BF92CF92DF92EF92F8
:1000C000FF920F931F93DF93CF93CDB7DEB7629765
:1000D0000FB6F894DEBF0FBECDBF10928001DE01D7
:1000E0001796E0E0F1E088E001900D928150E1F791
:1000F00019821A8289ED8B8389EC8C838AED8D833A
:1001000088EC8E8312D221D23D9A549A07D3579A03
:100110005F9A3C9A449A559A789484E390E066E416
:1001200070E035D310920A0110920B0110920C016D
:1001300010920D0194E190933A018DE280933B017E
:100140001092420110924301109244011092450115
:1001500090937201809373015F98809180018E5F0C
:1001600080937C008DEE80937A00399A419A579A59
:100170005F9A18BC2224332421011F86188A198A09
:100180001A8A80917C0190917D01A0E0B0E06C0121
:10019000BB24AA2480917E0190917F01A0E0B0E071
:1001A000A80EB91ECA1EDB1E60EE75E08DE29BE054
:1001B000A6019501DCD379018A0137014801E0915C
:1001C0008001F0E0EE0FFF1FEE0FFF1F21E030E097
:1001D0002C0F3D1FE20FF31F86819781A085B1850B
:1001E0000097A105B10501F520E030E08091800184
:1001F00090E0880F991FFC0143E0EE0FFF1F4A9526
:10020000E1F7E81BF90BE20FF31FEE0FFF1FEE0FF4
:10021000FF1FE25FFE4F10821182128213822F5F56
:100220003F4F2A30310511F731E4E3163CE9F3067C
:1002300030E0030730E013078CF0E0918001F0E03C
:10024000EE0FFF1FEE0FFF1F41E050E04C0F5D1F50
:10025000E40FF51F6680778080849184209180016F
:10026000E22EFF24F701EE0FFF1FEE0FFF1F81E0CC
:1002700090E08C0F9D1FE80FF91F86819781A08564
:10028000B18586159705A805B90509F4DDC02223B7
:1002900011F48EE001C08EE453D280918001E1E040
:1002A000F0E0EC0FFD1FE80FF11D8081E3E0F0E0CE
:1002B000EC0FFD1FE80FF11D8081F8D180918001C6
:1002C000282F30E0E1E0F0E0EC0FFD1FE20FF31F1C
:1002D00080818F5F8083843008F0108248E350E093
:1002E000249FF001259FF00D349FF00D1124E65F4F
:1002F000FE4F87A98A3010F48F5F87AB60E070E013
:1003000010918001AB016F5F7F4F812F90E0880FCC
:10031000991F9C01A3E0220F331FAA95E1F7281B28
:10032000390B240F351F220F331F220F331F225F7B
:100330003E4F812F90E0880F991FFC0153E0EE0F94
:10034000FF1F5A95E1F7E81BF90BE60FF71FEE0FB9
:10035000FF1FEE0FFF1FE25FFE4F80819181A281A0
:10036000B381F90180839183A283B38369307105DE
:1003700039F6812F90E028E330E0829FF001839FDF
:10038000F00D929FF00D1124E65FFE4F60A671A65E
:1003900082A693A6108211821282138260E070E01E
:1003A0008091800190E048E350E0849F8001859F28
:1003B000100D949F100D1124065F1E4F880F991F7A
:1003C000FC0123E0EE0FFF1F2A95E1F7E81BF90B74
:1003D000E60FF71FEE0FFF1FEE0FFF1FE25FFE4F4E
:1003E00080819181A281B381F80120813181428194
:1003F0005381820F931FA41FB51F80839183A28313
:10040000B3836F5F7F4F6A30710551F6EE0CFF1CAE
:10041000EE0CFF1C21E030E02C0F3D1FE20EF31E1E
:10042000F7016682778280869186F80127A930E0FD
:1004300040E050E0608171818281938198D2F8011F
:100440002083318342835383D201C1018A0D9B1DD6
:10045000AC1DBD1D2F85388949895A89A216B3065E
:10046000C406D5065CF01C012D01221A330A440A89
:10047000550AAF86B88AC98ADA8A02C01C012D01E2
:1004800031E023163DE2330631E3430631E0530603
:100490001CF180918001813071F4109280018FE015
:1004A0004FD181E303D18FE44BD18FE5FFD042E000
:1004B00040937C000EC051E0509380018FE040D10A
:1004C0008FE5F4D08FE43CD182E3F0D083E08093D9
:1004D0007C0022243324210180917A0190917B01B8
:1004E000019690937B0180937A0181529E4408F497
:1004F00048CE10927B0110927A0160910A017091AE
:100500000B0180910C0190910D0145E027E001E085
:1005100069D16091420170914301809144019091B1
:10052000450145E427E05ED12CCE83E284BD91E015
:1005300095BD89E188BD10926E001092800083E025
:100540008093810090936F0008958CE080937E00EB
:100550002198299A459A5C9808951F920F920FB698
:100560000F9211248F93809109018F5F809309016D
:100570008F910F900FBE0F901F9018951F920F92A2
:100580000FB60F9211242F933F934F935F936F9366
:100590007F938F939F93AF93BF93CF93DF93EF930B
:1005A000FF9380918001482F50E020917800309196
:1005B0007900369527953695279588E390E0489FF2
:1005C000F001499FF00D589FF00D1124E65FFE4F9A
:1005D00022AB81A98217C8F483A98823B1F481E0F2
:1005E00083AB809184009091850090937F018093EC
:1005F0007E01109285001092840080910901809301
:100600007C0110927D011092090188E390E0489FDF
:10061000F001499FF00D589FF00D1124E65FFE4F49
:1006200092A980A9981720F483A9813009F413AA0C
:10063000C8E3D0E04C9FF0014D9FF00D5C9FF00DA2
:100640001124E65FFE4F84A962A926DD8B30D8F025
:100650008091800190E08C9FF0018D9FF00D9C9F18
:10066000F00D1124E65FFE4F24A925AB82A984ABCF
:1006700090E0820F911D95958795282F86AB2B5F73
:1006800021AB2A5020ABFF91EF91DF91CF91BF9129
:10069000AF919F918F917F916F915F914F913F911A
:1006A0002F910F900FBE0F901F9018959AB19F60D9
:1006B0009AB9459A48E853E1FA013197F1F79BB1AD
:1006C000907F9BB92BB1982F92959F70922B9BB9DD
:1006D0004598459AFA013197F1F79BB1907F9BB904
:1006E0009BB18F70982B9BB94598CA010197F1F780
:1006F00008955C9881E0DADF5C9A0895CF93DF93E8
:10070000C8E5D0E0FE018491D1DF2196F0E0C0364B
:10071000DF07C1F75C9ADF91CF91089584EC99E0EF
:1007200024EF31E0F9013197F1F70197D9F7E6DFCE
:10073000E0DF80E593EC0197F1F7E0DFDADF089581
:100740005C988068B3DF5C9A08950F931F93CF93F2
:10075000DF938B01F5DFC0E0D0E0F801EC0FFD1F67
:10076000E4918E2FA3DF2196C031D105B1F7DF913F
:10077000CF911F910F9108951F93E2DF10E080E267
:1007800095DF1F5F1031D9F71F9108950895EF92FB
:10079000FF920F931F93CF93DF938C017B0180E037
:1007A000CFDFC0E0D0E0F801EC0FFD1FE4918E2F09
:1007B0007DDF2196C031D105B1F780E4C1DFC0E013
:1007C000D0E0F701EC0FFD1FE4918E2F6FDF219633
:1007D000C031D105B1F7DF91CF911F910F91FF90FB
:1007E000EF900895AF92BF92CF92DF92EF92FF9277
:1007F0000F931F93DF93CF93CDB7DEB760970FB6FC
:10080000F894DEBF0FBECDBF6B017C01142FA22E6A
:10081000B02E1092080197FF03C08EE4898306C0B2
:10082000AE014F5F5F4F2AE030E0DED0812F88DFDE
:1008300082E0B81611F08AE001C084E690E0A0E002
:10084000B0E0C816D906EA06FB060CF447C0FE0164
:100850003196DF010D900020E9F71197AE1BBF0B19
:100860008A2D90E08A179B0710F48A2D01C08A2FE9
:1008700000E0E82EFF24EB18F1086E010894C11C7B
:10088000D11C0AC0EC0DFD1D808110DF8091080194
:100890008F5F809308010F5FE02FF0E0EE15FF05FA
:1008A0008CF38EE203DF809108018F5F8093080153
:1008B00010E07E010894E11CF11C0BC0F701E80F69
:1008C000F11D8081F3DE809108018F5F8093080124
:1008D0001F5F812F800F1B1588F334C080E3E6DE95
:1008E000809108018F5F809308018EE2DFDE8091A6
:1008F00008018F5F8093080110E07E010894E11CDD
:10090000F11C16C0F70101900020E9F73197EE19AC
:10091000FF09A12FB0E0AE17BF0748F4AE0DBF1D11
:100920008C91C4DE809108018F5F809308011F5F66
:100930001B1540F307C080E2B9DE809108018F5F8C
:1009400080930801809108018A15A8F360960FB67C
:10095000F894DEBF0FBECDBFCF91DF911F910F91F5
:10096000FF90EF90DF90CF90BF90AF90089597FBEE
:10097000092E05260ED057FD04D014D00AD0001C35
:1009800038F450954095309521953F4F4F4F5F4F2C
:100990000895F6F790958095709561957F4F8F4FEC
:1009A0009F4F0895A1E21A2EAA1BBB1BFD010DC08B
:1009B000AA1FBB1FEE1FFF1FA217B307E407F5070F
:1009C00020F0A21BB30BE40BF50B661F771F881FEB
:1009D000991F1A9469F760957095809590959B0181
:1009E000AC01BD01CF010895FA01CF93FF93EF93BE
:1009F00022303CF125322CF5C22FE894CA3049F45C
:100A000097FB3EF490958095709561957F4F8F4F41
:100A10009F4F2C2F332744275527FF93EF93C2DF97
:100A2000EF91FF91605D6A330CF0695D6193B901EC
:100A3000CA01605070408040904059F716F4CDE2F2
:100A4000C19310828F919F91CF9100C0DC01FC0176
:100A5000672F71917723E1F7329704C07C916D93F2
:100A600070836291AE17BF07C8F30895F894FFCF63
:080A700000000000000000007E
:00000001FF
